:1000000000308A0018280000213084008313000883
:10001000031917280630F800F701F70B0D28F80B25
:100020000C287B30F700F70B1328800B0A280800F8
:1000300003081F398300E830A00083161F149F14A3
:100040001F159F1107309C00831300308600831218
:100050008601831688018130831288002008A10060
:100060000420831688014230831288002008A100F2
:100070000420831688012430831288002008A10000
:100080000420831688011830831288002008A100FC
:100090000420831688012430831288002008A100E0
:1000A0000420831688014230831288002008A100B2
:1000B0000420831688018130831288002008A10063
:1000C000042083168801831288012008A1000420DF
:0400D0002928630078
:02400E007A3FF7
:00000001FF
;PIC16F877A
;CRC=C564  CREATED="17-mar.-22 10:33"
