:1000000002308A00A52A00000A108A100A1182070D
:10001000313432343334343435343634373438349C
:1000200039342A34303423340C2AE531EC30E437C7
:10003000201AF8190A264322A018363C32008C21D7
:100040006139BD1263102010C129C324C91EA53A0D
:100050000A00CE3AED1EA53A00010C2AE531EC303B
:10006000E437201AF8190A264322A018363C320039
:100070002D3084008313000803194B280630F80044
:10008000F701F70B4128F80B40287B30F700F70BFE
:100090004728800B3E280800340EF039F7000F3057
:1000A000080577048800000008140230F700F70BF9
:1000B00057285A280000081008000808F700080E02
:1000C0000F39F800080083160810881008118312F1
:1000D00088100F3083160805F03888008312081541
:1000E0000000081400005D207808B400081000002B
:1000F00008147A287B2800005D207808B3000810D7
:100100000F308316080588008312340EF700F03094
:10011000F70577083304F8007808B300B31B6928A3
:10012000311C8810311888140000081100000810D4
:10013000320EB3000F30B3053308B4004C20320840
:100140000F39B300B4004C2008002830A9000C304F
:10015000AA000130AB000630AC000810881008116E
:100160000F308316080588000810881008110F301A
:100170008312AD0038200130A8002808033C031C7E
:10018000C9280330B4004C200530AD003820A80A3F
:10019000BD280230B4004C200530AD003820A80145
:1001A0002808033C031CE028293028078400831317
:1001B0000008AD00B1012D08B2006320A80AD028C4
:1001C0008A110A12BF2A8A110A12C02A2E0BE928A4
:1001D000EC284030AF00ED28AF0101302D02AF0711
:1001E0002F088038B000B1013008B2006320080049
:1001F0002C08073A031906290B3A03190B29063A6A
:1002000003191329023A031919291E290130AD00D7
:10021000AE00E6202329B1010130B2006320023094
:10022000AD00382023290130AD000230AE00E620B9
:100230002329B1011030B200632023290130B1001D
:100240002C08B200632008000B08A8008B1383164B
:1002500003178C170C140000000083120313A81B53
:100260008B1703170C087F39031978290313A8008B
:1002700003170D080313A90003170F080313AA009F
:100280002808AC00F820290803178D0003132A085A
:1002900003178F0003130B08AB008B138316031790
:1002A0008C170C140000000083120313AB1B8B1778
:1002B00003170C0D0E0D7F39031978290313A800BD
:1002C00003170D080313A90003170F080313AA004F
:1002D0002808AC00F820290803178D0003132A080A
:1002E00003178F008D0A03198F0A0313242903179C
:1002F00003130800A801A00A2008213C0318FB29C9
:10030000230803198A29013A03199029033A03198A
:1003100096299B29DE3083168600831286009B294E
:10032000BE3083168600831286009B297E3083169A
:10033000860083128600211CA72906081E391E3C50
:10034000031DA62921102208A800A201FA290608E7
:100350001E391E3C0319F52906080239031DB2296E
:10036000A901C62906080439031DB9290130A900CD
:10037000C62906080839031DC0290230A900C6296C
:1003800006081039031DC6290330A9002908AA0050
:100390000330AB00F701F8012A0803102B18F70708
:1003A000F70CF80CAB18F707F70CF80C2B19F7073C
:1003B000F70CF80CAB19F707F70CF80C2B1AF7072A
:1003C000F70CF80CAB1AF707F70CF80C2B1BF70718
:1003D000F70CF80CAB1BF707F70CF80C23087807A1
:1003E0000420F800A2002114FA29A30A2308033CE0
:1003F0000319A301A001FE3083168600831228088A
:10040000F8008A110A12C82A0B08A9008B13831658
:1004100003178C170C140000000083120313A91B90
:100420008B1703183B2A03170C087F390313A90005
:1004300003170D080313AA0003170F080313AB00DB
:100440002908AC00F8202A0803178D0003132B0895
:1004500003178F0003130B08AC008B1383160317CD
:100460008C170C140000000083120313AC1B8B17B5
:10047000A80B3B2A5A2A03170C0D0E0D7F390313C4
:10048000A90003170D080313AA0003170F0803138D
:10049000AB002908AC00F8202A0803178D000313CD
:1004A0002B0803178F008D0A03198F0A03100313FB
:1004B000A80B042A08002B08F8012A020318632A53
:1004C0002A08F7006F2AF7010830AC00AA0DF70DD3
:1004D0002B0877020318F700F80DAC0B662A08000A
:1004E00078082808AA006430AB005B227708A800CF
:1004F00078083030031D832AA91C8A2AA9198A2A60
:10050000291A2030862AA91129122914F8077808F7
:10051000AC00F8202808AA000A30AB005B2277085C
:10052000A80078083030031D9B2AA9199F2A291C8E
:100530009F2A291A2030F8077808AC00F8203030BC
:10054000A8072808AC00F820080003081F3983001A
:10055000A401A5010730A700D030A60083161F1400
:100560009F141F159F1107309C0083138312A00155
:100570002110A201A301831681138312A528E32869
:10058000143003178D0000308F00031324217A29C3
:100590007808A400A4080319192B30302402A50000
:1005A0001F3003178D0000308F0003100530031338
:1005B000A80004222408AC00F820223003178D0084
:1005C00000308F00031409300313A800042224080C
:1005D000A8001B30A90070220A30AC00F820293096
:1005E00003178D0000308F00031004300313A800A0
:1005F00004222508A8001B30A90070222708A800A3
:10060000A80AA8030319082BFF30AD003820012BDE
:100610002608AD0038202D3003178D0000308F00E4
:10062000031324210230A8009630AD003820A80B17
:06063000142BC72A630031
:02400E007A3FF7
:00000001FF
;PIC16F877A
;CRC=BE69  CREATED="18-mar.-22 19:29"
