:1000000001308A0055290000CC3AE939A0226E3926
:10001000E938F5320000D632EC30FA38F5327A1091
:10002000C7376E3D6136653D00010C002630840007
:1000300083130008031929280630F800F701F70B8D
:100040001F28F80B1E287B30F700F70B2528800BA4
:100050001C2808002C0EF039F7000F300805770433
:100060008800000008140230F700F70B3528382804
:100070000000081008000808F700080E0F39F80003
:1000800008008316081088100811831288100F309A
:1000900083160805F038880083120815000008143C
:1000A00000003B207808AC00081000000814582815
:1000B000592800003B207808AB0008100F30831649
:1000C0000805880083122C0EF700F030F70577083A
:1000D0002B04F8007808AB00AB1B4728291C8810BC
:1000E0002918881400000811000008102A0EAB001F
:1000F0000F30AB052B08AC002A202A080F39AB00C3
:10010000AC002A2008002830A2000C30A3000130E7
:10011000A4000630A5000810881008110F308316BF
:10012000080588000810881008110F308312A600F7
:1001300016200130A1002108033C031CA72803302E
:10014000AC002A200530A6001620A10A9B28023008
:10015000AC002A200530A6001620A1012108033C8E
:10016000031CBE2822302107840083130008A60048
:10017000A9012608AA004120A10AAE288A110A1264
:100180006429260BC428C7284030A700C828A70127
:1001900001302502A70727088038A800A9012808F0
:1001A000AA00412008002408073A0319E1280B3A65
:1001B0000319E628063A0319EE28023A0319F4282F
:1001C000F9280130A500A600C120FE28A9010130B0
:1001D000AA0041200230A6001620FE280130A5000A
:1001E0000230A600C120FE28A9011030AA0041203B
:1001F000FE280130A9002408AA00412008000B08AD
:10020000A1008B13831603178C170C140000000039
:1002100083120313A11B8B1703170C087F390319D3
:1002200053290313A10003170D080313A20003179A
:100230000F080313A3002108A400D32022080317EA
:100240008D000313230803178F0003130B08A4006A
:100250008B13831603178C170C14000000008312F5
:100260000313A41B8B1703170C0D0E0D7F390319F5
:1002700053290313A10003170D080313A20003174A
:100280000F080313A3002108A400D320220803179A
:100290008D000313230803178F008D0A03198F0A9B
:1002A0000313FF2803170313080003081F398300F3
:1002B00083161F149F141F159F1107309C00831372
:1002C000FF30860083128328061C8B290130A5008D
:1002D000A600C120043003178D0000308F000313E7
:1002E000FF200230A100FA30A6001620A10B7329CE
:1002F0000130A5000230A600C1200B3003178D008D
:1003000000308F000313FF200430A100FA30A60054
:100310001620A10B8629861C9729153003178D00FE
:1003200000308F000313FF20C830A6001620642978
:02033000630068
:02400E007A3FF7
:00000001FF
;PIC16F877A
;CRC=073D  CREATED="17-mar.-22 18:21"
