:1000000004308A00772C00000C00D4326D3865393A
:10001000613A75396100C539A021BD1266003430DE
:10002000840083130008031922280630F800F70122
:10003000F70B1828F80B17287B30F700F70B1E2852
:10004000800B152808003B0EF039F7000F3008052B
:1000500077048800000008140230F700F70B2E2800
:1000600031280000081008000808F700080E0F39B2
:10007000F8000800831608108810081183128810F1
:100080000F3083160805F038880083120815000029
:100090000814000034207808BB0008100000081481
:1000A00051285228000034207808BA0008100F3078
:1000B00083160805880083123B0EF700F030F70521
:1000C00077083A04F8007808BA00BA1B4028381CB0
:1000D0008810381888140000081100000810390E24
:1000E000BA000F30BA053A08BB00232039080F398F
:1000F000BA00BB00232008002830A7000C30A8005D
:100100000130A9000630AA000810881008110F302D
:100110008316080588000810881008110F30831214
:10012000B4000F200130A6002608033C031CA028C1
:100130000330BB0023200530B4000F20A60A94280A
:100140000230BB0023200530B4000F20A601260892
:10015000033C031CB72827302607840083130008BC
:10016000AB00B8012B08B9003A20A60AA7288A11CB
:100170000A12842C350BBD28C0284030B600C12897
:10018000B60101303402B60736088038B700B8012E
:100190003708B9003A2008003308073A0319DA286B
:1001A0000B3A0319DF28063A0319E728023A031924
:1001B000ED28F2280130B400B500BA20F728B801C4
:1001C0000130B9003A200230B4000F20F728013086
:1001D000B4000230B500BA20F728B8011030B900D9
:1001E0003A20F7280130B8003308B9003A20080057
:1001F0000B08A6008B13831603178C170C14000032
:10020000000083120313A61B8B1703170C087F39FA
:1002100003194C290313A60003170D080313A700A5
:1002200003170F080313A8002608B300CC202708E3
:1002300003178D000313280803178F0003130B08FF
:10024000A9008B13831603178C170C1400000000F1
:1002500083120313A91B8B1703170C0D0E0D7F3987
:1002600003194C290313A60003170D080313A70055
:1002700003170F080313A8002608B300CC20270893
:1002800003178D000313280803178F008D0A031925
:100290008F0A0313F8280317031308008E30F700A2
:1002A0002708F8002608F900FA01F808031D62295A
:1002B0007908F800F9010830F702F808031D6229EF
:1002C000F7016A290310F81B6929F90DF80DF703E6
:1002D0006229F8138A110A12B72C33080319DD2991
:1002E000BB0037080319DD29BB0703187E297F30BF
:1002F000BB02031CDD290319DD2982298130BB07DC
:100300000318DD293B08F700F801F901FA01340868
:10031000BF00BF173508BE003608BD001830BB004F
:10032000BC013D1CAB293A08FA07031C9D29F90AB8
:10033000031D9D29F80A0319BC173908F907031C86
:10034000A429F80A0319BC173808B500B5173508F1
:10035000F8070318BC17BC0DF80CF90CFA0CBF0C0D
:10036000BE0CBD0C0310BB0B90290130F70703181E
:10037000DD29F81BC229BF0DFA0DF90DF80DF703A1
:100380000319DD29BF1FD329FA0A031DD329F90A4E
:10039000031DD329F80A031DD329F80CF90CFA0C14
:1003A000F70A0319DD293408BC003808BC06BC1F55
:1003B000DB29F817E129F813E129F701F801F90120
:1003C000FA0108002A080319A72AB6002E08031903
:1003D000A72AB602031CF1297F30B6070318A72A03
:1003E000F7298130B602031CA72A0319A72A360869
:1003F000F700F801F901FA01B5012B08B400B417B0
:100400002C08B3002D08B2001930B6003108B20232
:1004100003181A2A0130B30203181A2AB402031867
:100420001A2AB50203181A2AB50AB40AB30A3108FF
:10043000B2074C2A3008B3020318352A0130B4023F
:100440000318352AB5020318352AB50AB40A30084C
:10045000B3073108B207031C4C2AB30A031D4C2A08
:10046000B40A031D4C2AB50A4C2A2F088038B4025E
:1004700003184B2A0130B50203184B2AB50A2F087E
:100480008038B4073008B307031C292AB40A031DB7
:10049000292AB50A292A7A14B60B4F2A5A2A031098
:1004A000B20DB30DB40DB50D0310FA0DF90DF80D25
:1004B000B70D062A371C622A0310F80CF90CFA0C47
:1004C000B70C652AF7030319A72AB71B8E2A031056
:1004D000B20DB30DB40DB50D3108B20203187A2A6E
:1004E0000130B30203187A2AB40203187A2AB5023B
:1004F000031C9D2A3008B3020318852A0130B40278
:100500000318852AB502031C9D2A2F088038B402DF
:1005100003188E2A0130B502031C9D2AFA0A031D16
:100520009D2AF90A031D9D2AF80A031D9D2AF70A30
:100530000319A72AF80CF90CFA0C2B08B6002F089F
:10054000B606B61FA52AF817AB2AF813AB2AF7018F
:10055000F801F901FA018A110A12DE2C0B08A70032
:100560008B13831603178C170C14000000008312E2
:100570000313A71B8B170318E52A03170C087F39F1
:100580000313A70003170D080313A80003170F0890
:100590000313A9002708B300CC20280803178D00F7
:1005A0000313290803178F0003130B08AA008B13EA
:1005B000831603178C170C1400000000831203131A
:1005C000AA1B8B17A60BE52A042B03170C0D0E0D87
:1005D0007F390313A70003170D080313A80003179F
:1005E0000F080313A9002708B300CC20280803171D
:1005F0008D000313290803178F008D0A03198F0A32
:1006000003100313A60BAE2A8A110A12FF2C8318BB
:100610000C2B3B3084008313F701F801F901FA0138
:10062000BB01BC01BD01BE013A08390438043704DE
:1006300003194A2B2030BF000310B30DB40DB50DC4
:10064000B60DBB0DBC0DBD0DBE0D3A083E02031D1F
:10065000332B39083D02031D332B38083C02031DA0
:10066000332B37083B02031C442B3708BB023808E6
:10067000031C380FBC023908031C390FBD023A08AD
:10068000031C3A0FBE020314F70DF80DF90DFA0D15
:10069000BF0B1C2B3B088000840A3C088000840AA6
:1006A0003D088000840A3E08800008000408AB0072
:1006B0002A08AD000319752B2908B6002808B500D3
:1006C0002708B4002608B300BA01B9012030B800E9
:1006D0008230B7006D217A08A9007908A80078084F
:1006E000A7007708A600AD0B5C2B2908B6002808E8
:1006F000B5002708B4002608B3003308B63CB300A1
:10070000FA013408B700B4170310B40CB50CB60CDA
:10071000FA0CF90CF80CF70CB30B842BB71F9B2BBE
:10072000F709F809F909FA09F70A0319F80A031988
:10073000F90A0319FA0A7A08A9007908A8007808C2
:10074000A7007708A600A91FB22BAB03AB16A6091A
:10075000A709A809A909A60A0319A70A0319A80A3B
:100760000319A90A3B30B2009A30B100CA30B00078
:10077000AF010A30AD002A080319AB0A83142630F2
:10078000840083132908B6002808B5002708B400A0
:100790002608B3003208BA003108B9003008B800A2
:1007A0002F08B70007237808F708031DEA2B2A0A49
:1007B0002D020319EA2B2B080319EC2B0F392D02FC
:1007C0000319E42B03181C2CAB1B1C2C2B1BEC2B30
:1007D0002030182C2030AB05AB1EFA2BAB122A08A8
:1007E000031DAB037708AB002D30B300CC202B08E2
:1007F000F700AB012A082D02031D082C7708AB0077
:100800002E30B300CC202B08F7002030AB05003091
:100810003030AB1E182CAB122A08031DAB0377082F
:10082000AB002D30B300CC202B08F700AB013030EB
:10083000F7077708B300CC2083103208B6003108E0
:10084000B5003008B4002F08B300BA01B901B801EF
:100850000A30B70007237A08B2007908B100780897
:10086000B0007708AF00AD0BBE2B8A110A120C2D19
:100870002708AE002B08AE06AE1F432C0311031051
:10088000A71B0314762C2708AE002A08AF00260801
:10089000AF020319512CAE1F762C0308013A8300D6
:1008A000762C2B08AF002708AF0203195D2CAE1F72
:1008B000762C0308013A8300762C2C08AF00280818
:1008C000AF020319692CAE1F762C0308013A83008E
:1008D000762C2D08AF002908AF020319752CAE1F26
:1008E000762C0308013A8300762C031008000308D5
:1008F0001F39830083161F149F141F159F11073083
:100900009C00831383127C2883161F109F141F15CD
:100910009F151F1383121F179F1783169F1783128C
:100920001F1407100030831687000030F800831270
:100930001F08C73978049F000230F700F70B9E2C80
:10094000A12C00001F151F19A32C83161E0883124B
:10095000A0001E08A100043003178D0000308F0096
:100960000313F8202108A7002008A6004E297A08C2
:10097000B6007908B5007808B4007708B300BA016A
:10098000B9017A30B8008730B7006D217A08A90024
:100990007908A8007808A7007708A6007A08AD00B3
:1009A0007908AC007808AB007708AA00B101C03024
:1009B000B0007F30AF008830AE00E2297A08A50091
:1009C0007908A4007808A3007708A2000130B400D9
:1009D000B500BA20053003178D0000308F000313D7
:1009E000F8200230B400B500BA200B3003178D0098
:1009F00000308F00031005300313A600AE2A8930A3
:100A000084002508A9002408A8002308A7002208BC
:100A1000A6000230AA00562B6430B4000F20A901B2
:100A2000A8012030A7008430A6002508AD002408C6
:100A3000AC002308AB002208AA0038240318222D9A
:100A4000031D262D07140A30B4000F202508A90025
:100A50002408A8002308A7002208A6009A30AD00A9
:100A60009930AC001F30AB008430AA003824031842
:100A70003B2D031D3F2D07100A30B4000F208316B5
:040A8000952C63004E
:02400E007A3FF7
:00000001FF
;PIC16F877A
;CRC=EA39  CREATED="18-mar.-22 19:50"
