:1000000000308A00182800002B3084008313000879
:10001000031917280630F800F701F70B0D28F80B25
:100020000C287B30F700F70B1328800B0A280800F8
:1000300003081F39830083161F149F141F159F1177
:1000400007309C0083133F308312A0000630A100CC
:100050005B30A2004F30A3006630A4006D30A500D5
:100060007D30A6000730A7007F30A8006F30A900C0
:1000700000308316860083128601831605148312CE
:10008000051C5F28831605148312051842280230C8
:10009000AB000420AA0A20302A078400831300083A
:1000A000AB0086002A08093C03185F280930AA0023
:1000B00020302A07840083130008AB0086008316D3
:1000C00085148312851C8028831685148312851855
:1000D00064280230AB000420AA0320302A078400E1
:1000E00083130008AB0086002A08FF3C031D80280C
:1000F000AA0120302A07840083130008AB00860081
:040100003D28630033
:02400E007A3FF7
:00000001FF
;PIC16F877A
;CRC=F5D5  CREATED="18-mar.-22 17:56"
