:1000000000308A0018280000243084008313000880
:10001000031917280630F800F701F70B0D28F80B25
:100020000C287B30F700F70B1328800B0A280800F8
:1000300003081F398300E830A00083161F149F14A3
:100040001F159F1107309C00831300308800831216
:100050008801831606148312061C5D28A10121085D
:10006000023C031C5D28013088002008A400042005
:10007000023088002008A4000420043088002008F2
:10008000A4000420083088002008A40004201030B8
:1000900088002008A4000420203088002008A40044
:1000A0000420403088002008A4000420803088000C
:1000B0002008A4000420A10A2F2883168614831286
:1000C000861C9128A2012208023C031C9128803042
:1000D00088002008A4000420403088002008A400E4
:1000E0000420203088002008A4000420103088005C
:1000F0002008A4000420083088002008A400042060
:10010000043088002008A400042002308800200861
:10011000A4000420013088002008A4000420A20AC2
:100120006328831606158312061DC628A30123081B
:10013000023C031CC528813088002008A40004204C
:10014000423088002008A4000420243088002008C1
:10015000A4000420183088002008A40004201830CF
:1001600088002008A4000420243088002008A4006F
:100170000420423088002008A40004208130880038
:100180002008A4000420A30A9728C728880129284A
:0201900063000A
:02400E007A3FF7
:00000001FF
;PIC16F877A
;CRC=2266  CREATED="18-mar.-22 17:56"
