:1000000000308A0018280000223084008313000882
:10001000031917280630F800F701F70B0D28F80B25
:100020000C287B30F700F70B1328800B0A280800F8
:1000300003081F39830083161F149F141F159F1177
:1000400007309C008313003086008312860106145B
:1000500086100615861086110430A100FA30A20021
:100060000420A10B2E2806110610861486150430D4
:10007000A100FA30A2000420A10B39282728630030
:02400E007A3FF7
:00000001FF
;PIC16F877A
;CRC=C674  CREATED="16-mar.-22 10:08"
